{
  "contractName": "StandardToken",
  "abi": [
    {
      "constant": true,
      "inputs": [],
      "name": "totalSupply",
      "outputs": [
        {
          "name": "",
          "type": "uint256"
        }
      ],
      "payable": false,
      "stateMutability": "view",
      "type": "function"
    },
    {
      "constant": true,
      "inputs": [
        {
          "name": "_owner",
          "type": "address"
        }
      ],
      "name": "balanceOf",
      "outputs": [
        {
          "name": "balance",
          "type": "uint256"
        }
      ],
      "payable": false,
      "stateMutability": "view",
      "type": "function"
    },
    {
      "constant": false,
      "inputs": [
        {
          "name": "_to",
          "type": "address"
        },
        {
          "name": "_value",
          "type": "uint256"
        }
      ],
      "name": "transfer",
      "outputs": [
        {
          "name": "",
          "type": "bool"
        }
      ],
      "payable": false,
      "stateMutability": "nonpayable",
      "type": "function"
    },
    {
      "anonymous": false,
      "inputs": [
        {
          "indexed": true,
          "name": "owner",
          "type": "address"
        },
        {
          "indexed": true,
          "name": "spender",
          "type": "address"
        },
        {
          "indexed": false,
          "name": "value",
          "type": "uint256"
        }
      ],
      "name": "Approval",
      "type": "event"
    },
    {
      "anonymous": false,
      "inputs": [
        {
          "indexed": true,
          "name": "from",
          "type": "address"
        },
        {
          "indexed": true,
          "name": "to",
          "type": "address"
        },
        {
          "indexed": false,
          "name": "value",
          "type": "uint256"
        }
      ],
      "name": "Transfer",
      "type": "event"
    },
    {
      "constant": false,
      "inputs": [
        {
          "name": "_from",
          "type": "address"
        },
        {
          "name": "_to",
          "type": "address"
        },
        {
          "name": "_value",
          "type": "uint256"
        }
      ],
      "name": "transferFrom",
      "outputs": [
        {
          "name": "",
          "type": "bool"
        }
      ],
      "payable": false,
      "stateMutability": "nonpayable",
      "type": "function"
    },
    {
      "constant": false,
      "inputs": [
        {
          "name": "_spender",
          "type": "address"
        },
        {
          "name": "_value",
          "type": "uint256"
        }
      ],
      "name": "approve",
      "outputs": [
        {
          "name": "",
          "type": "bool"
        }
      ],
      "payable": false,
      "stateMutability": "nonpayable",
      "type": "function"
    },
    {
      "constant": true,
      "inputs": [
        {
          "name": "_owner",
          "type": "address"
        },
        {
          "name": "_spender",
          "type": "address"
        }
      ],
      "name": "allowance",
      "outputs": [
        {
          "name": "remaining",
          "type": "uint256"
        }
      ],
      "payable": false,
      "stateMutability": "view",
      "type": "function"
    },
    {
      "constant": false,
      "inputs": [
        {
          "name": "_spender",
          "type": "address"
        },
        {
          "name": "_addedValue",
          "type": "uint256"
        }
      ],
      "name": "increaseApproval",
      "outputs": [
        {
          "name": "success",
          "type": "bool"
        }
      ],
      "payable": false,
      "stateMutability": "nonpayable",
      "type": "function"
    },
    {
      "constant": false,
      "inputs": [
        {
          "name": "_spender",
          "type": "address"
        },
        {
          "name": "_subtractedValue",
          "type": "uint256"
        }
      ],
      "name": "decreaseApproval",
      "outputs": [
        {
          "name": "success",
          "type": "bool"
        }
      ],
      "payable": false,
      "stateMutability": "nonpayable",
      "type": "function"
    }
  ],
  "bytecode": "0x608060405234801561001057600080fd5b50611040806100206000396000f30060806040526004361061008e576000357c0100000000000000000000000000000000000000000000000000000000900463ffffffff168063095ea7b31461009357806318160ddd146100f857806323b872dd1461012357806366188463146101a857806370a082311461020d578063a9059cbb14610264578063d73dd623146102c9578063dd62ed3e1461032e575b600080fd5b34801561009f57600080fd5b506100de600480360381019080803573ffffffffffffffffffffffffffffffffffffffff169060200190929190803590602001909291905050506103a5565b604051808215151515815260200191505060405180910390f35b34801561010457600080fd5b5061010d610497565b6040518082815260200191505060405180910390f35b34801561012f57600080fd5b5061018e600480360381019080803573ffffffffffffffffffffffffffffffffffffffff169060200190929190803573ffffffffffffffffffffffffffffffffffffffff1690602001909291908035906020019092919050505061049d565b604051808215151515815260200191505060405180910390f35b3480156101b457600080fd5b506101f3600480360381019080803573ffffffffffffffffffffffffffffffffffffffff1690602001909291908035906020019092919050505061085c565b604051808215151515815260200191505060405180910390f35b34801561021957600080fd5b5061024e600480360381019080803573ffffffffffffffffffffffffffffffffffffffff169060200190929190505050610aed565b6040518082815260200191505060405180910390f35b34801561027057600080fd5b506102af600480360381019080803573ffffffffffffffffffffffffffffffffffffffff16906020019092919080359060200190929190505050610b36565b604051808215151515815260200191505060405180910390f35b3480156102d557600080fd5b50610314600480360381019080803573ffffffffffffffffffffffffffffffffffffffff16906020019092919080359060200190929190505050610d5a565b604051808215151515815260200191505060405180910390f35b34801561033a57600080fd5b5061038f600480360381019080803573ffffffffffffffffffffffffffffffffffffffff169060200190929190803573ffffffffffffffffffffffffffffffffffffffff169060200190929190505050610f56565b6040518082815260200191505060405180910390f35b600081600260003373ffffffffffffffffffffffffffffffffffffffff1673ffffffffffffffffffffffffffffffffffffffff16815260200190815260200160002060008573ffffffffffffffffffffffffffffffffffffffff1673ffffffffffffffffffffffffffffffffffffffff168152602001908152602001600020819055508273ffffffffffffffffffffffffffffffffffffffff163373ffffffffffffffffffffffffffffffffffffffff167f8c5be1e5ebec7d5bd14f71427d1e84f3dd0314c0f7b2291e5b200ac8c7c3b925846040518082815260200191505060405180910390a36001905092915050565b60005481565b60008073ffffffffffffffffffffffffffffffffffffffff168373ffffffffffffffffffffffffffffffffffffffff16141515156104da57600080fd5b600160008573ffffffffffffffffffffffffffffffffffffffff1673ffffffffffffffffffffffffffffffffffffffff16815260200190815260200160002054821115151561052857600080fd5b600260008573ffffffffffffffffffffffffffffffffffffffff1673ffffffffffffffffffffffffffffffffffffffff16815260200190815260200160002060003373ffffffffffffffffffffffffffffffffffffffff1673ffffffffffffffffffffffffffffffffffffffff1681526020019081526020016000205482111515156105b357600080fd5b61060582600160008773ffffffffffffffffffffffffffffffffffffffff1673ffffffffffffffffffffffffffffffffffffffff16815260200190815260200160002054610fdd90919063ffffffff16565b600160008673ffffffffffffffffffffffffffffffffffffffff1673ffffffffffffffffffffffffffffffffffffffff1681526020019081526020016000208190555061069a82600160008673ffffffffffffffffffffffffffffffffffffffff1673ffffffffffffffffffffffffffffffffffffffff16815260200190815260200160002054610ff690919063ffffffff16565b600160008573ffffffffffffffffffffffffffffffffffffffff1673ffffffffffffffffffffffffffffffffffffffff1681526020019081526020016000208190555061076c82600260008773ffffffffffffffffffffffffffffffffffffffff1673ffffffffffffffffffffffffffffffffffffffff16815260200190815260200160002060003373ffffffffffffffffffffffffffffffffffffffff1673ffffffffffffffffffffffffffffffffffffffff16815260200190815260200160002054610fdd90919063ffffffff16565b600260008673ffffffffffffffffffffffffffffffffffffffff1673ffffffffffffffffffffffffffffffffffffffff16815260200190815260200160002060003373ffffffffffffffffffffffffffffffffffffffff1673ffffffffffffffffffffffffffffffffffffffff168152602001908152602001600020819055508273ffffffffffffffffffffffffffffffffffffffff168473ffffffffffffffffffffffffffffffffffffffff167fddf252ad1be2c89b69c2b068fc378daa952ba7f163c4a11628f55a4df523b3ef846040518082815260200191505060405180910390a3600190509392505050565b600080600260003373ffffffffffffffffffffffffffffffffffffffff1673ffffffffffffffffffffffffffffffffffffffff16815260200190815260200160002060008573ffffffffffffffffffffffffffffffffffffffff1673ffffffffffffffffffffffffffffffffffffffff1681526020019081526020016000205490508083111561096d576000600260003373ffffffffffffffffffffffffffffffffffffffff1673ffffffffffffffffffffffffffffffffffffffff16815260200190815260200160002060008673ffffffffffffffffffffffffffffffffffffffff1673ffffffffffffffffffffffffffffffffffffffff16815260200190815260200160002081905550610a01565b6109808382610fdd90919063ffffffff16565b600260003373ffffffffffffffffffffffffffffffffffffffff1673ffffffffffffffffffffffffffffffffffffffff16815260200190815260200160002060008673ffffffffffffffffffffffffffffffffffffffff1673ffffffffffffffffffffffffffffffffffffffff168152602001908152602001600020819055505b8373ffffffffffffffffffffffffffffffffffffffff163373ffffffffffffffffffffffffffffffffffffffff167f8c5be1e5ebec7d5bd14f71427d1e84f3dd0314c0f7b2291e5b200ac8c7c3b925600260003373ffffffffffffffffffffffffffffffffffffffff1673ffffffffffffffffffffffffffffffffffffffff16815260200190815260200160002060008873ffffffffffffffffffffffffffffffffffffffff1673ffffffffffffffffffffffffffffffffffffffff168152602001908152602001600020546040518082815260200191505060405180910390a3600191505092915050565b6000600160008373ffffffffffffffffffffffffffffffffffffffff1673ffffffffffffffffffffffffffffffffffffffff168152602001908152602001600020549050919050565b60008073ffffffffffffffffffffffffffffffffffffffff168373ffffffffffffffffffffffffffffffffffffffff1614151515610b7357600080fd5b600160003373ffffffffffffffffffffffffffffffffffffffff1673ffffffffffffffffffffffffffffffffffffffff168152602001908152602001600020548211151515610bc157600080fd5b610c1382600160003373ffffffffffffffffffffffffffffffffffffffff1673ffffffffffffffffffffffffffffffffffffffff16815260200190815260200160002054610fdd90919063ffffffff16565b600160003373ffffffffffffffffffffffffffffffffffffffff1673ffffffffffffffffffffffffffffffffffffffff16815260200190815260200160002081905550610ca882600160008673ffffffffffffffffffffffffffffffffffffffff1673ffffffffffffffffffffffffffffffffffffffff16815260200190815260200160002054610ff690919063ffffffff16565b600160008573ffffffffffffffffffffffffffffffffffffffff1673ffffffffffffffffffffffffffffffffffffffff168152602001908152602001600020819055508273ffffffffffffffffffffffffffffffffffffffff163373ffffffffffffffffffffffffffffffffffffffff167fddf252ad1be2c89b69c2b068fc378daa952ba7f163c4a11628f55a4df523b3ef846040518082815260200191505060405180910390a36001905092915050565b6000610deb82600260003373ffffffffffffffffffffffffffffffffffffffff1673ffffffffffffffffffffffffffffffffffffffff16815260200190815260200160002060008673ffffffffffffffffffffffffffffffffffffffff1673ffffffffffffffffffffffffffffffffffffffff16815260200190815260200160002054610ff690919063ffffffff16565b600260003373ffffffffffffffffffffffffffffffffffffffff1673ffffffffffffffffffffffffffffffffffffffff16815260200190815260200160002060008573ffffffffffffffffffffffffffffffffffffffff1673ffffffffffffffffffffffffffffffffffffffff168152602001908152602001600020819055508273ffffffffffffffffffffffffffffffffffffffff163373ffffffffffffffffffffffffffffffffffffffff167f8c5be1e5ebec7d5bd14f71427d1e84f3dd0314c0f7b2291e5b200ac8c7c3b925600260003373ffffffffffffffffffffffffffffffffffffffff1673ffffffffffffffffffffffffffffffffffffffff16815260200190815260200160002060008773ffffffffffffffffffffffffffffffffffffffff1673ffffffffffffffffffffffffffffffffffffffff168152602001908152602001600020546040518082815260200191505060405180910390a36001905092915050565b6000600260008473ffffffffffffffffffffffffffffffffffffffff1673ffffffffffffffffffffffffffffffffffffffff16815260200190815260200160002060008373ffffffffffffffffffffffffffffffffffffffff1673ffffffffffffffffffffffffffffffffffffffff16815260200190815260200160002054905092915050565b6000828211151515610feb57fe5b818303905092915050565b600080828401905083811015151561100a57fe5b80915050929150505600a165627a7a72305820987387166a81fb229a2af2006a305881bec94ac8572c145b3abf6498e76467860029",
  "source": "pragma solidity ^0.4.23;\n\n\n/**\n* @title SafeMath\n* @dev Math operations with safety checks that throw on error\n*/\nlibrary SafeMath {\n    function mul(uint256 a, uint256 b) internal pure returns (uint256) {\n        uint256 c = a * b;\n        assert(a == 0 || c / a == b);\n        return c;\n    }\n\n    function div(uint256 a, uint256 b) internal pure returns (uint256) {\n        // assert(b > 0); // Solidity automatically throws when dividing by 0\n        uint256 c = a / b;\n        // assert(a == b * c + a % b); // There is no case in which this doesn't hold\n        return c;\n    }\n\n    function sub(uint256 a, uint256 b) internal pure returns (uint256) {\n        assert(b <= a);\n        return a - b;\n    }\n\n    function add(uint256 a, uint256 b) internal pure returns (uint256) {\n        uint256 c = a + b;\n        assert(c >= a);\n        return c;\n    }\n}\n\n\n/**\n* @title Ownable\n* @dev The Ownable contract has an owner address, and provides basic authorization control\n* functions, this simplifies the implementation of \"user permissions\".\n*/\ncontract Ownable {\n    address public owner;\n\n\n    event OwnershipTransferred(address indexed previousOwner, address indexed newOwner);\n\n\n    /**\n    * @dev The Ownable constructor sets the original `owner` of the contract to the sender\n    * account.\n    */\n    constructor() public {\n        owner = msg.sender;\n    }\n\n\n    /**\n    * @dev Throws if called by any account other than the owner.\n    */\n    modifier onlyOwner() {\n        require(msg.sender == owner);\n        _;\n    }\n\n\n    /**\n    * @dev Allows the current owner to transfer control of the contract to a newOwner.\n    * @param newOwner The address to transfer ownership to.\n    */\n    function transferOwnership(address newOwner) public onlyOwner {\n        require(newOwner != address(0));\n        emit OwnershipTransferred(owner, newOwner);\n        owner = newOwner;\n    }\n\n}\n\n\n/**\n* @title Claimable\n* @dev Extension for the Ownable contract, where the ownership needs to be claimed.\n* This allows the new owner to accept the transfer.\n*/\ncontract Claimable is Ownable {\n    address public pendingOwner;\n\n    /**\n    * @dev Modifier throws if called by any account other than the pendingOwner.\n    */\n    modifier onlyPendingOwner() {\n        require(msg.sender == pendingOwner);\n        _;\n    }\n\n    /**\n    * @dev Allows the current owner to set the pendingOwner address.\n    * @param newOwner The address to transfer ownership to.\n    */\n    function transferOwnership(address newOwner) onlyOwner public {\n        pendingOwner = newOwner;\n    }\n\n    /**\n    * @dev Allows the pendingOwner address to finalize the transfer.\n    */\n    function claimOwnership() onlyPendingOwner public {\n        emit OwnershipTransferred(owner, pendingOwner);\n        owner = pendingOwner;\n        pendingOwner = address(0);\n    }\n}\n\n\n/**\n* @title ERC20Basic\n* @dev Simpler version of ERC20 interface\n* @dev see https://github.com/ethereum/EIPs/issues/179\n*/\ncontract ERC20Basic {\n    uint256 public totalSupply;\n    function balanceOf(address who) public view returns (uint256);\n    function transfer(address to, uint256 value) public returns (bool);\n    event Transfer(address indexed from, address indexed to, uint256 value);\n}\n\n\n\n\n/**\n* @title ERC20 interface\n* @dev see https://github.com/ethereum/EIPs/issues/20\n*/\ncontract ERC20 is ERC20Basic {\n    function allowance(address owner, address spender) public view returns (uint256);\n    function transferFrom(address from, address to, uint256 value) public returns (bool);\n    function approve(address spender, uint256 value) public returns (bool);\n    event Approval(address indexed owner, address indexed spender, uint256 value);\n}\n\n\n\n\n/**\n* @title Basic token\n* @dev Basic version of StandardToken, with no allowances.\n*/\ncontract BasicToken is ERC20Basic {\n    using SafeMath for uint256;\n\n    mapping(address => uint256) balances;\n\n    /**\n    * @dev transfer token for a specified address\n    * @param _to The address to transfer to.\n    * @param _value The amount to be transferred.\n    */\n    function transfer(address _to, uint256 _value) public returns (bool) {\n        require(_to != address(0));\n        require(_value <= balances[msg.sender]);\n\n        // SafeMath.sub will throw if there is not enough balance.\n        balances[msg.sender] = balances[msg.sender].sub(_value);\n        balances[_to] = balances[_to].add(_value);\n        emit Transfer(msg.sender, _to, _value);\n        return true;\n    }\n\n    /**\n    * @dev Gets the balance of the specified address.\n    * @param _owner The address to query the the balance of.\n    * @return An uint256 representing the amount owned by the passed address.\n    */\n    function balanceOf(address _owner) public view returns (uint256 balance) {\n        return balances[_owner];\n    }\n\n}\n\n\n/**\n* @title LimitedTransferToken\n* @dev LimitedTransferToken defines the generic interface and the implementation to limit token\n* transferability for different events. It is intended to be used as a base class for other token\n* contracts.\n* LimitedTransferToken has been designed to allow for different limiting factors,\n* this can be achieved by recursively calling super.transferableTokens() until the base class is\n* hit. For example:\n*     function transferableTokens(address holder, uint64 time) constant public returns (uint256) {\n*       return min256(unlockedTokens, super.transferableTokens(holder, time));\n*     }\n* A working example is VestedToken.sol:\n* https://github.com/OpenZeppelin/zeppelin-solidity/blob/master/contracts/token/VestedToken.sol\n*/\n\ncontract LimitedTransferToken is ERC20 {\n\n    /**\n    * @dev Checks whether it can transfer or otherwise throws.\n    */\n    modifier canTransfer(address _sender, uint256 _value) {\n        require(_value <= transferableTokens(_sender, uint64(now)));\n        _;\n    }\n\n    /**\n    * @dev Checks modifier and allows transfer if tokens are not locked.\n    * @param _to The address that will receive the tokens.\n    * @param _value The amount of tokens to be transferred.\n    */\n    function transfer(address _to, uint256 _value) canTransfer(msg.sender, _value) public returns (bool) {\n        return super.transfer(_to, _value);\n    }\n\n    /**\n    * @dev Checks modifier and allows transfer if tokens are not locked.\n    * @param _from The address that will send the tokens.\n    * @param _to The address that will receive the tokens.\n    * @param _value The amount of tokens to be transferred.\n    */\n    function transferFrom(address _from, address _to, uint256 _value) canTransfer(_from, _value) public returns (bool) {\n        return super.transferFrom(_from, _to, _value);\n    }\n\n    /**\n    * @dev Default transferable tokens function returns all tokens for a holder (no limit).\n    * @dev Overwriting transferableTokens(address holder, uint64 time) is the way to provide the\n    * specific logic for limiting token transferability for a holder over time.\n    */\n    function transferableTokens(address holder, uint64 time) public view returns (uint256) {\n        return balanceOf(holder);\n    }\n}\n\n\n\n\n/**\n* @title Standard ERC20 token\n*\n* @dev Implementation of the basic standard token.\n* @dev https://github.com/ethereum/EIPs/issues/20\n* @dev Based on code by FirstBlood: https://github.com/Firstbloodio/token/blob/master/smart_contract/FirstBloodToken.sol\n*/\ncontract StandardToken is ERC20, BasicToken {\n\n    mapping (address => mapping (address => uint256)) internal allowed;\n\n\n    /**\n    * @dev Transfer tokens from one address to another\n    * @param _from address The address which you want to send tokens from\n    * @param _to address The address which you want to transfer to\n    * @param _value uint256 the amount of tokens to be transferred\n    */\n    function transferFrom(address _from, address _to, uint256 _value) public returns (bool) {\n        require(_to != address(0));\n        require(_value <= balances[_from]);\n        require(_value <= allowed[_from][msg.sender]);\n\n        balances[_from] = balances[_from].sub(_value);\n        balances[_to] = balances[_to].add(_value);\n        allowed[_from][msg.sender] = allowed[_from][msg.sender].sub(_value);\n        emit Transfer(_from, _to, _value);\n        return true;\n    }\n\n    /**\n    * @dev Approve the passed address to spend the specified amount of tokens on behalf of msg.sender.\n    *\n    * Beware that changing an allowance with this method brings the risk that someone may use both the old\n    * and the new allowance by unfortunate transaction ordering. One possible solution to mitigate this\n    * race condition is to first reduce the spender's allowance to 0 and set the desired value afterwards:\n    * https://github.com/ethereum/EIPs/issues/20#issuecomment-263524729\n    * @param _spender The address which will spend the funds.\n    * @param _value The amount of tokens to be spent.\n    */\n    function approve(address _spender, uint256 _value) public returns (bool) {\n        allowed[msg.sender][_spender] = _value;\n        emit Approval(msg.sender, _spender, _value);\n        return true;\n    }\n\n    /**\n    * @dev Function to check the amount of tokens that an owner allowed to a spender.\n    * @param _owner address The address which owns the funds.\n    * @param _spender address The address which will spend the funds.\n    * @return A uint256 specifying the amount of tokens still available for the spender.\n    */\n    function allowance(address _owner, address _spender) public view returns (uint256 remaining) {\n        return allowed[_owner][_spender];\n    }\n\n    /**\n    * approve should be called when allowed[_spender] == 0. To increment\n    * allowed value is better to use this function to avoid 2 calls (and wait until\n    * the first transaction is mined)\n    * From MonolithDAO Token.sol\n    */\n    function increaseApproval (address _spender, uint _addedValue) public returns (bool success) {\n        allowed[msg.sender][_spender] = allowed[msg.sender][_spender].add(_addedValue);\n        emit Approval(msg.sender, _spender, allowed[msg.sender][_spender]);\n        return true;\n    }\n\n    function decreaseApproval (address _spender, uint _subtractedValue) public returns (bool success) {\n        uint oldValue = allowed[msg.sender][_spender];\n        if (_subtractedValue > oldValue) {\n            allowed[msg.sender][_spender] = 0;\n        } else {\n            allowed[msg.sender][_spender] = oldValue.sub(_subtractedValue);\n        }\n        emit Approval(msg.sender, _spender, allowed[msg.sender][_spender]);\n        return true;\n    }\n\n}\n\n\n\n/**\n* @title Mintable token\n* @dev Simple ERC20 Token example, with mintable token creation\n* @dev Issue: * https://github.com/OpenZeppelin/zeppelin-solidity/issues/120\n* Based on code by TokenMarketNet: https://github.com/TokenMarketNet/ico/blob/master/contracts/MintableToken.sol\n*/\n\ncontract MintableToken is StandardToken, Claimable {\n    event Mint(address indexed to, uint256 amount);\n    event MintFinished();\n\n    bool public mintingFinished = false;\n\n\n    modifier canMint() {\n        require(!mintingFinished);\n        _;\n    }\n\n    /**\n    * @dev Function to mint tokens\n    * @param _to The address that will receive the minted tokens.\n    * @param _amount The amount of tokens to mint.\n    * @return A boolean that indicates if the operation was successful.\n    */\n    function mint(address _to, uint256 _amount) public returns (bool) {\n        totalSupply = totalSupply.add(_amount);\n        balances[_to] = balances[_to].add(_amount);\n        emit Mint(_to, _amount);\n        emit Transfer(address(0), _to, _amount);\n        return true;\n    }\n\n    /**\n    * @dev Function to stop minting new tokens.\n    * @return True if the operation was successful.\n    */\n    function finishMinting() onlyOwner public returns (bool) {\n        mintingFinished = true;\n        emit MintFinished();\n        return true;\n    }\n}\n\n    /*\n    Smart Token interface\n    */\n    contract ISmartToken {\n\n        // =================================================================================================================\n        //                                      Members\n        // =================================================================================================================\n\n        bool public transfersEnabled = true;\n\n        // =================================================================================================================\n        //                                      Event\n        // =================================================================================================================\n\n        // triggered when a smart token is deployed - the _token address is defined for forward compatibility, in case we want to trigger the event from a factory\n        event NewSmartToken(address _token);\n        // triggered when the total supply is increased\n        event Issuance(uint256 _amount);\n        // triggered when the total supply is decreased\n        event Destruction(uint256 _amount);\n\n        // =================================================================================================================\n        //                                      Functions\n        // =================================================================================================================\n\n        function disableTransfers(bool _disable) public;\n        function issue(address _to, uint256 _amount) public;\n        function destroy(address _from, uint256 _amount) public;\n    }\n\n\n    /**\n    BancorSmartToken\n    */\n    contract LimitedTransferBancorSmartToken is MintableToken, ISmartToken, LimitedTransferToken {\n\n        // =================================================================================================================\n        //                                      Modifiers\n        // =================================================================================================================\n\n        /**\n        * @dev Throws if destroy flag is not enabled.\n        */\n        modifier canDestroy() {\n            require(destroyEnabled);\n            _;\n        }\n\n        // =================================================================================================================\n        //                                      Members\n        // =================================================================================================================\n\n        // We add this flag to avoid users and owner from destroy tokens during crowdsale,\n        // This flag is set to false by default and blocks destroy function,\n        // We enable destroy option on finalize, so destroy will be possible after the crowdsale.\n        bool public destroyEnabled = false;\n\n        // =================================================================================================================\n        //                                      Public Functions\n        // =================================================================================================================\n\n        function setDestroyEnabled(bool _enable) onlyOwner public {\n            destroyEnabled = _enable;\n        }\n\n        // =================================================================================================================\n        //                                      Impl ISmartToken\n        // =================================================================================================================\n\n        //@Override\n        function disableTransfers(bool _disable) onlyOwner public {\n            transfersEnabled = !_disable;\n        }\n\n        //@Override\n        function issue(address _to, uint256 _amount) public {\n            require(super.mint(_to, _amount));\n            emit Issuance(_amount);\n        }\n\n        //@Override\n        function destroy(address _from, uint256 _amount) canDestroy public {\n\n            require(msg.sender == _from || msg.sender == owner); // validate input\n\n            balances[_from] = balances[_from].sub(_amount);\n            totalSupply = totalSupply.sub(_amount);\n\n            emit Destruction(_amount);\n            emit Transfer(_from, 0x0, _amount);\n        }\n\n        // =================================================================================================================\n        //                                      Impl LimitedTransferToken\n        // =================================================================================================================\n\n\n        // Enable/Disable token transfer\n        // Tokens will be locked in their wallets until the end of the Crowdsale.\n        // @holder - token`s owner\n        // @time - not used (framework unneeded functionality)\n        //\n        // @Override\n        function transferableTokens(address holder, uint64 time) public constant returns (uint256) {\n            require(transfersEnabled);\n            return super.transferableTokens(holder, time);\n        }\n    }\n\n\n\n\n    /**\n    A Token which is 'Bancor' compatible and can mint new tokens and pause token-transfer functionality\n    */\n    contract FuzexSmartToken is LimitedTransferBancorSmartToken {\n\n        // =================================================================================================================\n        //                                         Members\n        // =================================================================================================================\n\n        string public name = \"FUZEX\";\n\n        string public symbol = \"FXT\";\n\n        uint8 public decimals = 18;\n\n        // =================================================================================================================\n        //                                         Constructor\n        // =================================================================================================================\n\n        constructor() public {\n            //Apart of 'Bancor' computability - triggered when a smart token is deployed\n            emit NewSmartToken(address(this));\n        }\n    }\n\n\n    /**\n    * @title Crowdsale\n    * @dev Crowdsale is a base contract for managing a token crowdsale.\n    * Crowdsales have a start and end timestamps, where investors can make\n    * token purchases and the crowdsale will assign them tokens based\n    * on a token per ETH rate. Funds collected are forwarded to a wallet\n    * as they arrive.\n    */\n    contract Crowdsale {\n        using SafeMath for uint256;\n\n        // The token being sold\n        FuzexSmartToken public token;\n\n        // address where funds are collected\n        address public wallet;\n\n        // how many token units a buyer gets per wei\n        uint256 public rate;\n\n        // amount of raised money in wei\n        uint256 public weiRaised;\n\n        /**\n        * event for token purchase logging\n        * @param purchaser who paid for the tokens\n        * @param beneficiary who got the tokens\n        * @param value weis paid for purchase\n        * @param amount amount of tokens purchased\n        */\n        event TokenPurchase(address indexed purchaser, address indexed beneficiary, uint256 value, uint256 amount);\n\n        constructor(uint256 _rate, address _wallet, FuzexSmartToken _token) public {\n            require(_rate > 0);\n            require(_wallet != address(0));\n            require(_token != address(0));\n\n            rate = _rate;\n            wallet = _wallet;\n            token = _token;\n        }\n\n        // fallback function can be used to buy tokens\n        function() external payable {\n            buyTokens(msg.sender);\n        }\n\n        // low level token purchase function\n        function buyTokens(address beneficiary) public payable {\n            require(beneficiary != address(0));\n\n            uint256 weiAmount = msg.value;\n\n            // calculate token amount to be created\n            uint256 tokens = weiAmount.mul(getRate());\n\n            // update state\n            weiRaised = weiRaised.add(weiAmount);\n\n            token.issue(beneficiary, tokens);\n            emit TokenPurchase(msg.sender, beneficiary, weiAmount, tokens);\n\n            forwardFunds();\n        }\n\n        // send ether to the fund collection wallet\n        // override to create custom fund forwarding mechanisms\n        function forwardFunds() internal {\n            wallet.transfer(msg.value);\n        }\n\n        // @return the crowdsale rate\n        function getRate() public view returns (uint256) {\n            return rate;\n        }\n\n\n    }\n\n\n    /**\n    * @title FinalizableCrowdsale\n    * @dev Extension of Crowdsale where an owner can do extra work\n    * after finishing.\n    */\n    contract FinalizableCrowdsale is Crowdsale, Claimable {\n        using SafeMath for uint256;\n\n        bool public isFinalized = false;\n\n        event Finalized();\n\n        /**\n        * @dev Must be called after crowdsale ends, to do some extra finalization\n        * work. Calls the contract's finalization function.\n        */\n        function finalize() onlyOwner public {\n            finalization();\n            emit Finalized();\n\n            isFinalized = true;\n        }\n\n        /**\n        * @dev Can be overridden to add finalization logic. The overriding function\n        * should call super.finalization() to ensure the chain of finalization is\n        * executed entirely.\n        */\n        function finalization() internal {\n        }\n    }\n\n\n\n\n    contract FuzexCrowdsale is FinalizableCrowdsale {\n\n        // =================================================================================================================\n        //                                      Constants\n        // =================================================================================================================\n        // Max amount of known addresses of which will get SRN by 'Grant' method.\n        //\n        // grantees addresses will be SirinLabs wallets addresses.\n        // these wallets will contain SRN tokens that will be used for 2 purposes only -\n        // 1. SRN tokens against raised fiat money\n        // 2. SRN tokens for presale bonus.\n        // we set the value to 10 (and not to 2) because we want to allow some flexibility for cases like fiat money that is raised close to the crowdsale.\n        // we limit the value to 10 (and not larger) to limit the run time of the function that process the grantees array.\n        uint8 public constant MAX_TOKEN_GRANTEES = 10;\n\n        uint256 public constant EXCHANGE_RATE = 5000;\n\n\n        // =================================================================================================================\n        //                                      Members\n        // =================================================================================================================\n        // Funds collected outside the crowdsale in wei\n        uint256 public fiatRaisedConvertedToWei;\n\n\n        // =================================================================================================================\n        //                                      Events\n        // =================================================================================================================\n        event GrantAdded(address indexed _grantee, uint256 _amount);\n\n        event GrantUpdated(address indexed _grantee, uint256 _oldAmount, uint256 _newAmount);\n\n        event GrantDeleted(address indexed _grantee, uint256 _hadAmount);\n\n        event FiatRaisedUpdated(address indexed _address, uint256 _fiatRaised);\n\n        event TokenPurchaseWithGuarantee(address indexed purchaser, address indexed beneficiary, uint256 value, uint256 amount);\n\n        // =================================================================================================================\n        //                                      Constructors\n        // =================================================================================================================\n\n        constructor(\n            FuzexSmartToken _fuzexSmartToken\n            )\n            public\n            Crowdsale(EXCHANGE_RATE, msg.sender, _fuzexSmartToken) {\n                require(_fuzexSmartToken != address(0));\n\n                token = _fuzexSmartToken;\n            }\n\n            // =================================================================================================================\n            //                                      Impl Crowdsale\n            // =================================================================================================================\n\n            // @return the rate in SRN per 1 ETH according to the time of the tx and the SRN pricing program.\n            // @Override\n            function getRate() public view returns (uint256) {\n                return EXCHANGE_RATE;\n            }\n\n            // =================================================================================================================\n            //                                      Impl FinalizableCrowdsale\n            // =================================================================================================================\n\n            //@Override\n            function finalization() internal onlyOwner {\n                super.finalization();\n\n                // Re-enable destroy function after the token sale.\n                token.setDestroyEnabled(true);\n\n                // transfer token ownership to crowdsale owner\n                token.transferOwnership(owner);\n            }\n\n            // =================================================================================================================\n            //                                      Public Methods\n            // =================================================================================================================\n            // @return the total funds collected in wei(ETH and none ETH).\n            function getTotalFundsRaised() public view returns (uint256) {\n                return fiatRaisedConvertedToWei.add(weiRaised);\n            }\n\n            // =================================================================================================================\n            //                                      External Methods\n            // =================================================================================================================\n            // @dev Set funds collected outside the crowdsale in wei.\n            //  note: we not to use accumulator to allow flexibility in case of humane mistakes.\n            // funds are converted to wei using the market conversion rate of USD\\ETH on the day on the purchase.\n            // @param _fiatRaisedConvertedToWei number of none eth raised.\n            function setFiatRaisedConvertedToWei(uint256 _fiatRaisedConvertedToWei) external onlyOwner {\n                fiatRaisedConvertedToWei = _fiatRaisedConvertedToWei;\n                emit FiatRaisedUpdated(msg.sender, fiatRaisedConvertedToWei);\n            }\n\n            /// @dev Accepts new ownership on behalf of the SirinCrowdsale contract. This can be used, by the token sale\n            /// contract itself to claim back ownership of the SirinSmartToken contract.\n            function claimTokenOwnership() external onlyOwner {\n                token.claimOwnership();\n            }\n\n        }\n",
  "sourcePath": "/Users/jhjeon/workspace/fuzex-vesting-contract/contracts/token.sol",
  "compiler": {
    "name": "solc",
    "version": "0.4.24+commit.e67f0147.Emscripten.clang"
  },
  "schemaVersion": "2.0.1",
  "updatedAt": "2018-07-09T08:22:18.002Z"
}