{
  "contractName": "TokenVesting",
  "abi": [
    {
      "constant": true,
      "inputs": [],
      "name": "totalAmount",
      "outputs": [
        {
          "name": "",
          "type": "uint256"
        }
      ],
      "payable": false,
      "stateMutability": "view",
      "type": "function"
    },
    {
      "constant": true,
      "inputs": [
        {
          "name": "",
          "type": "address"
        }
      ],
      "name": "vestingTable",
      "outputs": [
        {
          "name": "cliff",
          "type": "uint256"
        },
        {
          "name": "start",
          "type": "uint256"
        },
        {
          "name": "duration",
          "type": "uint256"
        },
        {
          "name": "amount",
          "type": "uint256"
        },
        {
          "name": "released",
          "type": "uint256"
        },
        {
          "name": "periodUnit",
          "type": "uint256"
        }
      ],
      "payable": false,
      "stateMutability": "view",
      "type": "function"
    },
    {
      "constant": true,
      "inputs": [],
      "name": "owner",
      "outputs": [
        {
          "name": "",
          "type": "address"
        }
      ],
      "payable": false,
      "stateMutability": "view",
      "type": "function"
    },
    {
      "constant": true,
      "inputs": [],
      "name": "totalReleased",
      "outputs": [
        {
          "name": "",
          "type": "uint256"
        }
      ],
      "payable": false,
      "stateMutability": "view",
      "type": "function"
    },
    {
      "constant": false,
      "inputs": [
        {
          "name": "newOwner",
          "type": "address"
        }
      ],
      "name": "transferOwnership",
      "outputs": [],
      "payable": false,
      "stateMutability": "nonpayable",
      "type": "function"
    },
    {
      "inputs": [
        {
          "name": "_token",
          "type": "address"
        }
      ],
      "payable": false,
      "stateMutability": "nonpayable",
      "type": "constructor"
    },
    {
      "anonymous": false,
      "inputs": [
        {
          "indexed": false,
          "name": "amount",
          "type": "uint256"
        }
      ],
      "name": "Released",
      "type": "event"
    },
    {
      "anonymous": false,
      "inputs": [
        {
          "indexed": false,
          "name": "beneficiary",
          "type": "address"
        },
        {
          "indexed": false,
          "name": "cliff",
          "type": "uint256"
        },
        {
          "indexed": false,
          "name": "duration",
          "type": "uint256"
        },
        {
          "indexed": false,
          "name": "periodUnit",
          "type": "uint256"
        },
        {
          "indexed": false,
          "name": "amount",
          "type": "uint256"
        }
      ],
      "name": "Registered",
      "type": "event"
    },
    {
      "anonymous": false,
      "inputs": [
        {
          "indexed": false,
          "name": "beneficiary",
          "type": "address"
        },
        {
          "indexed": false,
          "name": "start",
          "type": "uint256"
        }
      ],
      "name": "Start",
      "type": "event"
    },
    {
      "anonymous": false,
      "inputs": [
        {
          "indexed": false,
          "name": "beneficiary",
          "type": "address"
        },
        {
          "indexed": false,
          "name": "vestedAmount",
          "type": "uint256"
        }
      ],
      "name": "Revoked",
      "type": "event"
    },
    {
      "anonymous": false,
      "inputs": [
        {
          "indexed": true,
          "name": "previousOwner",
          "type": "address"
        },
        {
          "indexed": true,
          "name": "newOwner",
          "type": "address"
        }
      ],
      "name": "OwnershipTransferred",
      "type": "event"
    },
    {
      "constant": false,
      "inputs": [
        {
          "name": "_beneficiary",
          "type": "address"
        },
        {
          "name": "_cliff",
          "type": "uint256"
        },
        {
          "name": "_duration",
          "type": "uint256"
        },
        {
          "name": "_periodUnit",
          "type": "uint256"
        },
        {
          "name": "_amount",
          "type": "uint256"
        }
      ],
      "name": "setBeneficiary",
      "outputs": [],
      "payable": false,
      "stateMutability": "nonpayable",
      "type": "function"
    },
    {
      "constant": false,
      "inputs": [
        {
          "name": "_beneficiary",
          "type": "address[]"
        },
        {
          "name": "_cliff",
          "type": "uint256"
        },
        {
          "name": "_duration",
          "type": "uint256"
        },
        {
          "name": "_periodUnit",
          "type": "uint256"
        },
        {
          "name": "_amount",
          "type": "uint256"
        }
      ],
      "name": "setMultipleBeneficiary",
      "outputs": [],
      "payable": false,
      "stateMutability": "nonpayable",
      "type": "function"
    },
    {
      "constant": false,
      "inputs": [
        {
          "name": "_beneficiary",
          "type": "address[]"
        },
        {
          "name": "_cliff",
          "type": "uint256[]"
        },
        {
          "name": "_duration",
          "type": "uint256[]"
        },
        {
          "name": "_periodUnit",
          "type": "uint256[]"
        },
        {
          "name": "_amount",
          "type": "uint256[]"
        }
      ],
      "name": "setMultipleBeneficiary",
      "outputs": [],
      "payable": false,
      "stateMutability": "nonpayable",
      "type": "function"
    },
    {
      "constant": false,
      "inputs": [
        {
          "name": "_beneficiary",
          "type": "address"
        }
      ],
      "name": "setStart",
      "outputs": [],
      "payable": false,
      "stateMutability": "nonpayable",
      "type": "function"
    },
    {
      "constant": false,
      "inputs": [
        {
          "name": "_beneficiary",
          "type": "address[]"
        }
      ],
      "name": "setMultipleStart",
      "outputs": [],
      "payable": false,
      "stateMutability": "nonpayable",
      "type": "function"
    },
    {
      "constant": true,
      "inputs": [
        {
          "name": "_amount",
          "type": "uint256"
        }
      ],
      "name": "checkAmount",
      "outputs": [
        {
          "name": "",
          "type": "bool"
        }
      ],
      "payable": false,
      "stateMutability": "view",
      "type": "function"
    },
    {
      "constant": false,
      "inputs": [
        {
          "name": "_beneficiary",
          "type": "address"
        }
      ],
      "name": "release",
      "outputs": [],
      "payable": false,
      "stateMutability": "nonpayable",
      "type": "function"
    },
    {
      "constant": false,
      "inputs": [
        {
          "name": "_beneficiary",
          "type": "address"
        }
      ],
      "name": "revoke",
      "outputs": [],
      "payable": false,
      "stateMutability": "nonpayable",
      "type": "function"
    },
    {
      "constant": true,
      "inputs": [
        {
          "name": "_beneficiary",
          "type": "address"
        }
      ],
      "name": "releasableAmount",
      "outputs": [
        {
          "name": "",
          "type": "uint256"
        }
      ],
      "payable": false,
      "stateMutability": "view",
      "type": "function"
    },
    {
      "constant": true,
      "inputs": [
        {
          "name": "_beneficiary",
          "type": "address"
        }
      ],
      "name": "vestedAmount",
      "outputs": [
        {
          "name": "",
          "type": "uint256"
        }
      ],
      "payable": false,
      "stateMutability": "view",
      "type": "function"
    },
    {
      "constant": false,
      "inputs": [
        {
          "name": "oddToken",
          "type": "address"
        },
        {
          "name": "amount",
          "type": "uint256"
        }
      ],
      "name": "emergencyERC20Drain",
      "outputs": [],
      "payable": false,
      "stateMutability": "nonpayable",
      "type": "function"
    }
  ],
  "bytecode": "0x608060405234801561001057600080fd5b50604051602080611fc483398101806040528101908080519060200190929190505050336000806101000a81548173ffffffffffffffffffffffffffffffffffffffff021916908373ffffffffffffffffffffffffffffffffffffffff160217905550600073ffffffffffffffffffffffffffffffffffffffff168173ffffffffffffffffffffffffffffffffffffffff16141515156100af57600080fd5b80600360006101000a81548173ffffffffffffffffffffffffffffffffffffffff021916908373ffffffffffffffffffffffffffffffffffffffff1602179055506000600181905550600060028190555050611eb4806101106000396000f3006080604052600436106100e6576000357c0100000000000000000000000000000000000000000000000000000000900463ffffffff1680631726cbc8146100eb57806319165587146101425780631a39d8ef14610185578063369d938f146101b0578063384711cc1461022a5780633a2853e914610281578063479178a0146102c457806374a8f1031461035f5780637c9d931a146103a25780638da5cb5b1461040d5780638f2595f414610464578063db0e16f11461049f578063dcd1e670146104ec578063e33b7de314610531578063f2fde38b1461055c578063f6b15f911461059f575b600080fd5b3480156100f757600080fd5b5061012c600480360381019080803573ffffffffffffffffffffffffffffffffffffffff169060200190929190505050610602565b6040518082815260200191505060405180910390f35b34801561014e57600080fd5b50610183600480360381019080803573ffffffffffffffffffffffffffffffffffffffff169060200190929190505050610750565b005b34801561019157600080fd5b5061019a610a8e565b6040518082815260200191505060405180910390f35b3480156101bc57600080fd5b506101f1600480360381019080803573ffffffffffffffffffffffffffffffffffffffff169060200190929190505050610a94565b60405180878152602001868152602001858152602001848152602001838152602001828152602001965050505050505060405180910390f35b34801561023657600080fd5b5061026b600480360381019080803573ffffffffffffffffffffffffffffffffffffffff169060200190929190505050610ad0565b6040518082815260200191505060405180910390f35b34801561028d57600080fd5b506102c2600480360381019080803573ffffffffffffffffffffffffffffffffffffffff169060200190929190505050610db8565b005b3480156102d057600080fd5b5061035d600480360381019080803590602001908201803590602001919091929391929390803590602001908201803590602001919091929391929390803590602001908201803590602001919091929391929390803590602001908201803590602001919091929391929390803590602001908201803590602001919091929391929390505050610fad565b005b34801561036b57600080fd5b506103a0600480360381019080803573ffffffffffffffffffffffffffffffffffffffff16906020019092919050505061110b565b005b3480156103ae57600080fd5b5061040b600480360381019080803573ffffffffffffffffffffffffffffffffffffffff16906020019092919080359060200190929190803590602001909291908035906020019092919080359060200190929190505050611377565b005b34801561041957600080fd5b50610422611689565b604051808273ffffffffffffffffffffffffffffffffffffffff1673ffffffffffffffffffffffffffffffffffffffff16815260200191505060405180910390f35b34801561047057600080fd5b5061049d6004803603810190808035906020019082018035906020019190919293919293905050506116ae565b005b3480156104ab57600080fd5b506104ea600480360381019080803573ffffffffffffffffffffffffffffffffffffffff16906020019092919080359060200190929190505050611760565b005b3480156104f857600080fd5b5061051760048036038101908080359060200190929190505050611962565b604051808215151515815260200191505060405180910390f35b34801561053d57600080fd5b50610546611aff565b6040518082815260200191505060405180910390f35b34801561056857600080fd5b5061059d600480360381019080803573ffffffffffffffffffffffffffffffffffffffff169060200190929190505050611b05565b005b3480156105ab57600080fd5b5061060060048036038101908080359060200190820180359060200191909192939192939080359060200190929190803590602001909291908035906020019092919080359060200190929190505050611c5a565b005b6000806000600460008573ffffffffffffffffffffffffffffffffffffffff1673ffffffffffffffffffffffffffffffffffffffff168152602001908152602001600020600101541415151561065757600080fd5b3373ffffffffffffffffffffffffffffffffffffffff168373ffffffffffffffffffffffffffffffffffffffff1614806106dd57503373ffffffffffffffffffffffffffffffffffffffff166000809054906101000a900473ffffffffffffffffffffffffffffffffffffffff1673ffffffffffffffffffffffffffffffffffffffff16145b15156106e857600080fd5b600460008473ffffffffffffffffffffffffffffffffffffffff1673ffffffffffffffffffffffffffffffffffffffff1681526020019081526020016000206004015490506107488161073a85610ad0565b611d1490919063ffffffff16565b915050919050565b60003373ffffffffffffffffffffffffffffffffffffffff168273ffffffffffffffffffffffffffffffffffffffff1614806107d857503373ffffffffffffffffffffffffffffffffffffffff166000809054906101000a900473ffffffffffffffffffffffffffffffffffffffff1673ffffffffffffffffffffffffffffffffffffffff16145b15156107e357600080fd5b6107ec82610602565b90506000811115156107fd57600080fd5b61085281600460008573ffffffffffffffffffffffffffffffffffffffff1673ffffffffffffffffffffffffffffffffffffffff16815260200190815260200160002060040154611d2d90919063ffffffff16565b600460008473ffffffffffffffffffffffffffffffffffffffff1673ffffffffffffffffffffffffffffffffffffffff168152602001908152602001600020600401819055506108ad81600254611d2d90919063ffffffff16565b600281905550600360009054906101000a900473ffffffffffffffffffffffffffffffffffffffff1673ffffffffffffffffffffffffffffffffffffffff1663a9059cbb83836040518363ffffffff167c0100000000000000000000000000000000000000000000000000000000028152600401808373ffffffffffffffffffffffffffffffffffffffff1673ffffffffffffffffffffffffffffffffffffffff16815260200182815260200192505050602060405180830381600087803b15801561097857600080fd5b505af115801561098c573d6000803e3d6000fd5b505050506040513d60208110156109a257600080fd5b8101908080519060200190929190505050507ffb81f9b30d73d830c3544b34d827c08142579ee75710b490bab0b3995468c565816040518082815260200191505060405180910390a16109f482611d4b565b15610a8a576000600460008473ffffffffffffffffffffffffffffffffffffffff1673ffffffffffffffffffffffffffffffffffffffff168152602001908152602001600020600101819055506000600460008473ffffffffffffffffffffffffffffffffffffffff1673ffffffffffffffffffffffffffffffffffffffff168152602001908152602001600020600301819055505b5050565b60015481565b60046020528060005260406000206000915090508060000154908060010154908060020154908060030154908060040154908060050154905086565b6000806000806000806000806000600460008b73ffffffffffffffffffffffffffffffffffffffff1673ffffffffffffffffffffffffffffffffffffffff1681526020019081526020016000206001015414151515610b2e57600080fd5b3373ffffffffffffffffffffffffffffffffffffffff168973ffffffffffffffffffffffffffffffffffffffff161480610bb457503373ffffffffffffffffffffffffffffffffffffffff166000809054906101000a900473ffffffffffffffffffffffffffffffffffffffff1673ffffffffffffffffffffffffffffffffffffffff16145b1515610bbf57600080fd5b600460008a73ffffffffffffffffffffffffffffffffffffffff1673ffffffffffffffffffffffffffffffffffffffff168152602001908152602001600020600301549650600460008a73ffffffffffffffffffffffffffffffffffffffff1673ffffffffffffffffffffffffffffffffffffffff168152602001908152602001600020600101549550610c9e600460008b73ffffffffffffffffffffffffffffffffffffffff1673ffffffffffffffffffffffffffffffffffffffff1681526020019081526020016000206000015487611d2d90919063ffffffff16565b9450600460008a73ffffffffffffffffffffffffffffffffffffffff1673ffffffffffffffffffffffffffffffffffffffff168152602001908152602001600020600201549350600460008a73ffffffffffffffffffffffffffffffffffffffff1673ffffffffffffffffffffffffffffffffffffffff1681526020019081526020016000206005015492508284811515610d3557fe5b0491506000905084421015610d4d5760009750610dac565b610d608487611d2d90919063ffffffff16565b42101515610d7057869750610dac565b600090505b81811015610d9b578281028601421015610d8e57610d9b565b8080600101915050610d75565b808288811515610da757fe5b040297505b50505050505050919050565b60008060009054906101000a900473ffffffffffffffffffffffffffffffffffffffff1673ffffffffffffffffffffffffffffffffffffffff163373ffffffffffffffffffffffffffffffffffffffff16141515610e1557600080fd5b600073ffffffffffffffffffffffffffffffffffffffff168273ffffffffffffffffffffffffffffffffffffffff1614151515610e5157600080fd5b6000600460008473ffffffffffffffffffffffffffffffffffffffff1673ffffffffffffffffffffffffffffffffffffffff1681526020019081526020016000206003015414151515610ea357600080fd5b6000600460008473ffffffffffffffffffffffffffffffffffffffff1673ffffffffffffffffffffffffffffffffffffffff16815260200190815260200160002060010154141515610ef457600080fd5b42905080600460008473ffffffffffffffffffffffffffffffffffffffff1673ffffffffffffffffffffffffffffffffffffffff168152602001908152602001600020600101819055507fcfb9c5312b25ec7b809d61e638df25f749eae5d5c25399e1c93d1d319bfd58218282604051808373ffffffffffffffffffffffffffffffffffffffff1673ffffffffffffffffffffffffffffffffffffffff1681526020018281526020019250505060405180910390a15050565b60008060009054906101000a900473ffffffffffffffffffffffffffffffffffffffff1673ffffffffffffffffffffffffffffffffffffffff163373ffffffffffffffffffffffffffffffffffffffff1614151561100a57600080fd5b888890508b8b905014151561101e57600080fd5b868690508b8b905014151561103257600080fd5b848490508b8b905014151561104657600080fd5b828290508b8b905014151561105a57600080fd5b600090505b8a8a90508110156110fe576110f18b8b83818110151561107b57fe5b9050602002013573ffffffffffffffffffffffffffffffffffffffff168a8a8481811015156110a657fe5b9050602002013589898581811015156110bb57fe5b9050602002013588888681811015156110d057fe5b9050602002013587878781811015156110e557fe5b90506020020135611377565b808060010191505061105f565b5050505050505050505050565b6000803373ffffffffffffffffffffffffffffffffffffffff168373ffffffffffffffffffffffffffffffffffffffff16148061119457503373ffffffffffffffffffffffffffffffffffffffff166000809054906101000a900473ffffffffffffffffffffffffffffffffffffffff1673ffffffffffffffffffffffffffffffffffffffff16145b151561119f57600080fd5b6000600460008573ffffffffffffffffffffffffffffffffffffffff1673ffffffffffffffffffffffffffffffffffffffff16815260200190815260200160002060010154141515156111f157600080fd5b6111fa83610ad0565b915061125182600460008673ffffffffffffffffffffffffffffffffffffffff1673ffffffffffffffffffffffffffffffffffffffff16815260200190815260200160002060030154611d1490919063ffffffff16565b905061125c83610750565b6000600460008573ffffffffffffffffffffffffffffffffffffffff1673ffffffffffffffffffffffffffffffffffffffff168152602001908152602001600020600101819055506000600460008573ffffffffffffffffffffffffffffffffffffffff1673ffffffffffffffffffffffffffffffffffffffff1681526020019081526020016000206003018190555061130181600154611d1490919063ffffffff16565b6001819055507f713b90881ad62c4fa8ab6bd9197fa86481fc0c11b2edba60026514281b2dbac48383604051808373ffffffffffffffffffffffffffffffffffffffff1673ffffffffffffffffffffffffffffffffffffffff1681526020018281526020019250505060405180910390a1505050565b6000809054906101000a900473ffffffffffffffffffffffffffffffffffffffff1673ffffffffffffffffffffffffffffffffffffffff163373ffffffffffffffffffffffffffffffffffffffff161415156113d257600080fd5b600073ffffffffffffffffffffffffffffffffffffffff168573ffffffffffffffffffffffffffffffffffffffff161415151561140e57600080fd5b6000600460008773ffffffffffffffffffffffffffffffffffffffff1673ffffffffffffffffffffffffffffffffffffffff1681526020019081526020016000206001015414151561145f57600080fd5b6000821415151561146f57600080fd5b6000600460008773ffffffffffffffffffffffffffffffffffffffff1673ffffffffffffffffffffffffffffffffffffffff1681526020019081526020016000206003015414151561151957611512600460008773ffffffffffffffffffffffffffffffffffffffff1673ffffffffffffffffffffffffffffffffffffffff16815260200190815260200160002060030154600154611d1490919063ffffffff16565b6001819055505b61152281611962565b151561152d57600080fd5b60c060405190810160405280603c8602815260200160008152602001603c8502815260200182815260200160008152602001603c8402815250600460008773ffffffffffffffffffffffffffffffffffffffff1673ffffffffffffffffffffffffffffffffffffffff168152602001908152602001600020600082015181600001556020820151816001015560408201518160020155606082015181600301556080820151816004015560a082015181600501559050506115f981600154611d2d90919063ffffffff16565b6001819055507f3ee610718d9834b6a9bfa863fa49800cc789c95c0ca5118212da12c784703b378585858585604051808673ffffffffffffffffffffffffffffffffffffffff1673ffffffffffffffffffffffffffffffffffffffff1681526020018581526020018481526020018381526020018281526020019550505050505060405180910390a15050505050565b6000809054906101000a900473ffffffffffffffffffffffffffffffffffffffff1681565b60008060009054906101000a900473ffffffffffffffffffffffffffffffffffffffff1673ffffffffffffffffffffffffffffffffffffffff163373ffffffffffffffffffffffffffffffffffffffff1614151561170b57600080fd5b600090505b8282905081101561175b5761174e838383818110151561172c57fe5b9050602002013573ffffffffffffffffffffffffffffffffffffffff16610db8565b8080600101915050611710565b505050565b6000809054906101000a900473ffffffffffffffffffffffffffffffffffffffff1673ffffffffffffffffffffffffffffffffffffffff163373ffffffffffffffffffffffffffffffffffffffff161415156117bb57600080fd5b600073ffffffffffffffffffffffffffffffffffffffff168273ffffffffffffffffffffffffffffffffffffffff16141561185d576000809054906101000a900473ffffffffffffffffffffffffffffffffffffffff1673ffffffffffffffffffffffffffffffffffffffff166108fc829081150290604051600060405180830381858888f19350505050158015611857573d6000803e3d6000fd5b5061195e565b8173ffffffffffffffffffffffffffffffffffffffff1663a9059cbb6000809054906101000a900473ffffffffffffffffffffffffffffffffffffffff16836040518363ffffffff167c0100000000000000000000000000000000000000000000000000000000028152600401808373ffffffffffffffffffffffffffffffffffffffff1673ffffffffffffffffffffffffffffffffffffffff16815260200182815260200192505050602060405180830381600087803b15801561192157600080fd5b505af1158015611935573d6000803e3d6000fd5b505050506040513d602081101561194b57600080fd5b8101908080519060200190929190505050505b5050565b6000806000809054906101000a900473ffffffffffffffffffffffffffffffffffffffff1673ffffffffffffffffffffffffffffffffffffffff163373ffffffffffffffffffffffffffffffffffffffff161415156119c057600080fd5b6119d7600254600154611d1490919063ffffffff16565b90506119ec8382611d2d90919063ffffffff16565b600360009054906101000a900473ffffffffffffffffffffffffffffffffffffffff1673ffffffffffffffffffffffffffffffffffffffff166370a08231306040518263ffffffff167c0100000000000000000000000000000000000000000000000000000000028152600401808273ffffffffffffffffffffffffffffffffffffffff1673ffffffffffffffffffffffffffffffffffffffff168152602001915050602060405180830381600087803b158015611aa957600080fd5b505af1158015611abd573d6000803e3d6000fd5b505050506040513d6020811015611ad357600080fd5b8101908080519060200190929190505050101515611af45760019150611af9565b600091505b50919050565b60025481565b6000809054906101000a900473ffffffffffffffffffffffffffffffffffffffff1673ffffffffffffffffffffffffffffffffffffffff163373ffffffffffffffffffffffffffffffffffffffff16141515611b6057600080fd5b600073ffffffffffffffffffffffffffffffffffffffff168173ffffffffffffffffffffffffffffffffffffffff1614151515611b9c57600080fd5b8073ffffffffffffffffffffffffffffffffffffffff166000809054906101000a900473ffffffffffffffffffffffffffffffffffffffff1673ffffffffffffffffffffffffffffffffffffffff167f8be0079c531659141344cd1fd0a4f28419497f9722a3daafe3b4186f6b6457e060405160405180910390a3806000806101000a81548173ffffffffffffffffffffffffffffffffffffffff021916908373ffffffffffffffffffffffffffffffffffffffff16021790555050565b60008060009054906101000a900473ffffffffffffffffffffffffffffffffffffffff1673ffffffffffffffffffffffffffffffffffffffff163373ffffffffffffffffffffffffffffffffffffffff16141515611cb757600080fd5b600090505b86869050811015611d0b57611cfe8787838181101515611cd857fe5b9050602002013573ffffffffffffffffffffffffffffffffffffffff1686868686611377565b8080600101915050611cbc565b50505050505050565b6000828211151515611d2257fe5b818303905092915050565b6000808284019050838110151515611d4157fe5b8091505092915050565b60008060003373ffffffffffffffffffffffffffffffffffffffff168473ffffffffffffffffffffffffffffffffffffffff161480611dd657503373ffffffffffffffffffffffffffffffffffffffff166000809054906101000a900473ffffffffffffffffffffffffffffffffffffffff1673ffffffffffffffffffffffffffffffffffffffff16145b1515611de157600080fd5b600460008573ffffffffffffffffffffffffffffffffffffffff1673ffffffffffffffffffffffffffffffffffffffff168152602001908152602001600020600301549150600460008573ffffffffffffffffffffffffffffffffffffffff1673ffffffffffffffffffffffffffffffffffffffff16815260200190815260200160002060040154905080821415611e7c5760019250611e81565b600092505b50509190505600a165627a7a7230582081c5d917d2fb93599a48d537d506a8478038b0c4f38210e8ef167a36b87d39cc0029",
  "source": "/* solium-disable security/no-block-members */\npragma solidity ^0.4.23;\n\n\n/**\n* @title SafeMath\n* @dev Math operations with safety checks that throw on error\n*/\nlibrary SafeMath {\n    function mul(uint256 a, uint256 b) internal pure returns (uint256) {\n        uint256 c = a * b;\n        assert(a == 0 || c / a == b);\n        return c;\n    }\n\n    function div(uint256 a, uint256 b) internal pure returns (uint256) {\n        // assert(b > 0); // Solidity automatically throws when dividing by 0\n        uint256 c = a / b;\n        // assert(a == b * c + a % b); // There is no case in which this doesn't hold\n        return c;\n    }\n\n    function sub(uint256 a, uint256 b) internal pure returns (uint256) {\n        assert(b <= a);\n        return a - b;\n    }\n\n    function add(uint256 a, uint256 b) internal pure returns (uint256) {\n        uint256 c = a + b;\n        assert(c >= a);\n        return c;\n    }\n}\n\n\n/**\n* @title ERC20Basic\n* @dev Simpler version of ERC20 interface\n* @dev see https://github.com/ethereum/EIPs/issues/179\n*/\ncontract ERC20Basic {\n    uint256 public totalSupply;\n    function balanceOf(address who) public view returns (uint256);\n    function transfer(address to, uint256 value) public returns (bool);\n    event Transfer(address indexed from, address indexed to, uint256 value);\n}\n\n\n/**\n* @title Ownable\n* @dev The Ownable contract has an owner address, and provides basic authorization control\n* functions, this simplifies the implementation of \"user permissions\".\n*/\ncontract Ownable {\n    address public owner;\n\n\n    event OwnershipTransferred(address indexed previousOwner, address indexed newOwner);\n\n\n    /**\n    * @dev The Ownable constructor sets the original `owner` of the contract to the sender\n    * account.\n    */\n    constructor() public {\n        owner = msg.sender;\n    }\n\n\n    /**\n    * @dev Throws if called by any account other than the owner.\n    */\n    modifier onlyOwner() {\n        require(msg.sender == owner);\n        _;\n    }\n\n\n    /**\n    * @dev Allows the current owner to transfer control of the contract to a newOwner.\n    * @param newOwner The address to transfer ownership to.\n    */\n    function transferOwnership(address newOwner) public onlyOwner {\n        require(newOwner != address(0));\n        emit OwnershipTransferred(owner, newOwner);\n        owner = newOwner;\n    }\n\n}\n\n/**\n* @title TokenVesting\n* @dev A token holder contract that can release its token balance gradually like a\n* typical vesting scheme, with a cliff and vesting period. Optionally revocable by the\n* owner.\n*/\ncontract TokenVesting is Ownable {\n    using SafeMath for uint256;\n\n    event Released(uint256 amount);\n    event Registered(address beneficiary, uint256 cliff, uint256 duration, uint256 periodUnit, uint256 amount);\n    event Start(address beneficiary, uint256 start);\n    event Revoked(address beneficiary, uint256 vestedAmount);\n\n    uint256 public totalAmount;\n    uint256 public totalReleased;\n\n    struct VestingSchedule {\n        uint256 cliff;\n        uint256 start;\n        uint256 duration;        // number of periods until done.\n        uint256 amount;       // Total amount of tokens to be vested.\n        uint256 released;   // The amount that has been withdrawn.\n        uint256 periodUnit;\n    }\n\n    ERC20Basic tokenContract;\n\n    // Schedule table for beneficiary\n    mapping (address => VestingSchedule) public vestingTable;\n\n    /**\n    * @dev Creates a vesting contract that vests its balance of the ERC20 token.\n    * @param _token address of the token contract to be vested\n    */\n    constructor(ERC20Basic _token) public {\n        require(_token != address(0));\n        tokenContract = _token;\n        totalAmount = 0;\n        totalReleased = 0;\n    }\n\n    function setBeneficiary(address _beneficiary, uint256 _cliff, uint256 _duration, uint256 _periodUnit, uint256 _amount) public onlyOwner {\n        require(_beneficiary != address(0));\n        require(vestingTable[_beneficiary].start == 0);\n        require(_periodUnit != 0);\n        if(vestingTable[_beneficiary].amount != 0){\n            totalAmount = totalAmount.sub(vestingTable[_beneficiary].amount);\n        }\n        require(checkAmount(_amount));\n\n        vestingTable[_beneficiary] = VestingSchedule({\n            cliff : (_cliff * 1 minutes),\n            start : 0,\n            duration : (_duration * 1 minutes),\n            amount : _amount,\n            released : 0,\n            periodUnit : (_periodUnit * 1 minutes)\n        });\n        totalAmount = totalAmount.add(_amount);\n        emit Registered(_beneficiary, _cliff, _duration, _periodUnit, _amount);\n    }\n\n    function setMultipleBeneficiary(address[] _beneficiary, uint256[] _cliff, uint256[] _duration, uint256[] _periodUnit, uint256[] _amount) external onlyOwner {\n        require(_beneficiary.length == _cliff.length);\n        require(_beneficiary.length == _duration.length);\n        require(_beneficiary.length == _periodUnit.length);\n        require(_beneficiary.length == _amount.length);\n\n        for(uint256 i = 0; i < _beneficiary.length; i++) {\n            setBeneficiary(_beneficiary[i], _cliff[i], _duration[i], _periodUnit[i], _amount[i]);\n        }\n    }\n\n    function setMultipleBeneficiary(address[] _beneficiary, uint256 _cliff, uint256 _duration, uint256 _periodUnit, uint256 _amount) external onlyOwner {\n        for(uint256 i = 0; i < _beneficiary.length; i++) {\n            setBeneficiary(_beneficiary[i], _cliff, _duration, _periodUnit, _amount);\n        }\n    }\n\n    function setStart(address _beneficiary) public onlyOwner{\n        require(_beneficiary != address(0));\n        require(vestingTable[_beneficiary].amount != 0);\n        require(vestingTable[_beneficiary].start == 0);\n        uint256 time = now;\n        vestingTable[_beneficiary].start = time;\n        emit Start(_beneficiary, time);\n    }\n\n    function setMultipleStart(address[] _beneficiary) external onlyOwner{\n        for(uint256 i = 0; i < _beneficiary.length; i++){\n            setStart(_beneficiary[i]);\n        }\n    }\n\n    function checkAmount(uint256 _amount) public view onlyOwner returns (bool){\n        uint256 reserveAmount = totalAmount.sub(totalReleased);\n        if(tokenContract.balanceOf(this) >= reserveAmount.add(_amount)){\n            return true;\n        } else {\n            return false;\n        }\n    }\n\n    /**\n    * @notice Transfers vested tokens to beneficiary.\n    * @param _beneficiary beneficiary address\n    */\n    function release(address _beneficiary) public {\n        require(_beneficiary == msg.sender || owner == msg.sender);\n        uint256 unreleased = releasableAmount(_beneficiary);\n        require(unreleased > 0);\n        vestingTable[_beneficiary].released = vestingTable[_beneficiary].released.add(unreleased);\n        totalReleased = totalReleased.add(unreleased);\n\n        tokenContract.transfer(_beneficiary, unreleased);\n        emit Released(unreleased);\n        if(checkReleaseAll(_beneficiary)){\n            vestingTable[_beneficiary].start = 0;\n            vestingTable[_beneficiary].amount = 0;\n        }\n\n    }\n\n    function checkReleaseAll(address _beneficiary) internal view returns (bool){\n        require(_beneficiary == msg.sender || owner == msg.sender);\n        uint256 vestingAmount = vestingTable[_beneficiary].amount;\n        uint256 releasedAmount = vestingTable[_beneficiary].released;\n        if (vestingAmount == releasedAmount) {\n            return true;\n        } else {\n            return false;\n        }\n    }\n\n    /**\n    * @notice Allows the owner or beneficiary to revoke the vesting. Tokens already vested\n    * remain will send to beneficiary and the rest are returned to the owner.\n    * @param _beneficiary beneficiary addess to revoke the vesting\n    */\n    function revoke(address _beneficiary) public {\n        require(_beneficiary == msg.sender || owner == msg.sender);\n        require(vestingTable[_beneficiary].start != 0);\n        uint256 vested = vestedAmount(_beneficiary);\n        uint256 remain = vestingTable[_beneficiary].amount.sub(vested);\n\n        release(_beneficiary);\n        vestingTable[_beneficiary].start = 0;\n        vestingTable[_beneficiary].amount = 0;\n        totalAmount = totalAmount.sub(remain);\n        emit Revoked(_beneficiary, vested);\n    }\n\n\n    /**\n    * @dev Calculates the amount that has already vested but hasn't been released yet.\n    * @param _beneficiary beneficiary address\n    */\n    function releasableAmount(address _beneficiary) public view returns (uint256) {\n        require(vestingTable[_beneficiary].start != 0);\n        require(_beneficiary == msg.sender || owner == msg.sender);\n        uint256 released = vestingTable[_beneficiary].released;\n        return vestedAmount(_beneficiary).sub(released);\n    }\n\n    /**\n    * @dev Calculates the amount that has already vested.\n    * @param _beneficiary beneficiary address\n    */\n    function vestedAmount(address _beneficiary) public view returns (uint256) {\n        require(vestingTable[_beneficiary].start != 0);\n        require(_beneficiary == msg.sender || owner == msg.sender);\n        uint256 totalBalance = vestingTable[_beneficiary].amount;\n        uint256 start = vestingTable[_beneficiary].start;\n        uint256 cliff = start.add(vestingTable[_beneficiary].cliff);\n        uint256 duration = vestingTable[_beneficiary].duration;\n        uint256 periodUnit = vestingTable[_beneficiary].periodUnit;\n        uint256 totalPeriods = duration / periodUnit;\n        uint256 i = 0;\n\n\n        if (block.timestamp < cliff) {\n            return 0;\n        } else if (block.timestamp >= start.add(duration)) {\n            return totalBalance;\n        } else {\n            for(i = 0; i < totalPeriods; i++){\n               if(block.timestamp < start + (i * periodUnit)){\n                    break;\n                }\n            }\n            //return totalBalance.mul(block.timestamp.sub(start)).div(duration);\n            return (totalBalance/totalPeriods) * i;\n        }\n    }\n\n    function emergencyERC20Drain(ERC20Basic oddToken, uint amount) public onlyOwner{\n        if (address(oddToken) == address(0)) {\n            owner.transfer(amount);\n            return;\n        }\n        oddToken.transfer(owner, amount);\n    }\n}\n",
  "sourcePath": "/Users/jhjeon/workspace/fuzex-vesting-contract/contracts/TokenVesting.sol",
  "compiler": {
    "name": "solc",
    "version": "0.4.24+commit.e67f0147.Emscripten.clang"
  },
  "schemaVersion": "2.0.1",
  "updatedAt": "2018-07-09T08:22:17.803Z"
}